:100000000C942A000C94FE100C942B110C94581193
:100010000C9447000C9447000C9447000C94752DE9
:100020000C9447000C9447000C943A0B0C94970BDB
:100030000C9447000C9447000C9447000C94470024
:100040000C949D150C9447000C9447000C944700A9
:100050000C94470011241FBECFE5D8E0DEBFCDBF12
:1000600011E0A0E6B0E0E4EBFBE702C005900D92E2
:10007000AA38B107D9F718E0AAE8B1E001C01D928B
:10008000A136B107E1F70E94833A0C94D83D0C9455
:100090000000EF92FF920F931F937B018C0120E0F1
:1000A00030E040E05FE40E949D0488238CF0C801AA
:1000B000B70120E030E040E05FE40E9469020E9466
:1000C000FD049B01AC01205030404040504806C028
:1000D000C801B7010E94FD049B01AC01B901CA012E
:1000E0001F910F91FF90EF900895A0E0B0E0EBE733
:1000F000F0E00C94E13A7B018C0120E030E040E834
:100100005FE30E94CD0488234CF4AA24BB24CC24B2
:10011000DD24EE24FF2400E010E086C0C801B70112
:1001200020E030E040E85FE40E94CD04882354F4EE
:10013000C801B7010E9449005B016C01EE24FF2455
:10014000870172C0C801B70120E030E040E85FE5F8
:100150000E94CD0487FD0FC0AA24AA94BB24BA94A0
:10016000CC24CA94DD24DA94EE24EA94FF24FA9491
:100170000FEF1FEF59C0C801B70120E030E040E8A1
:100180005FE20E94C7027B018C01222433242101FB
:1001900090E1A92EB12CC12CD12CC0E0D0E061E0BF
:1001A00070E080E090E00A2C04C0660F771F881F83
:1001B000991F0A94D2F70E9451053B014C01C801D6
:1001C000B701A40193010E949D04882364F02A28AA
:1001D0003B284C285D28C801B701A40193010E9467
:1001E000C1037B018C01D694C794B794A794219640
:1001F000C530D105A1F6C801B70120E030E040E8E4
:100200005FE40E94C7020E9449005B016C019B01F0
:10021000A60160E070E080E090E0022D0E94CA0537
:1002200059016A017B018C019501A601B701C80142
:10023000CDB7DEB7E2E10C94FD3AA0E0B0E0E3E236
:10024000F1E00C94E13ADC012B01FA019C9192302F
:1002500008F439C1EB018881823008F433C194304D
:1002600069F4843009F02FC111969C91119789810E
:10027000981709F428C1A8E6B0E025C1843009F434
:1002800021C18230A9F4923009F01DC19A01AD015B
:1002900088E0EA010990AE01E90109929E018150CE
:1002A000C1F7E201898111969C918923818308C15C
:1002B000923009F407C112962D903C901397EB01F0
:1002C0008A819B811496AD90BD90CD90DC9017975C
:1002D000EC80FD800E811F819101281B390BB90133
:1002E00037FF04C066277727621B730B60327105E6
:1002F0000CF061C0121613066CF537014801062E8A
:1003000004C096948794779467940A94D2F721E076
:1003100030E040E050E004C0220F331F441F551F5F
:100320006A95D2F721503040404050402E213F2165
:1003300040235123211531054105510521F021E0CC
:1003400030E040E050E079018A01E628F7280829EA
:1003500019293CC0232BD1F1260E371E3501460149
:10036000062E04C096948794779467940A94D2F7E3
:1003700021E030E040E050E004C0220F331F441F72
:10038000551F6A95D2F721503040404050402A21F5
:100390003B214C215D21211531054105510521F0FD
:1003A00021E030E040E050E059016A01A628B7287A
:1003B000C828D9280BC0821593052CF01C01AA244B
:1003C000BB24650103C0EE24FF24870111969C9194
:1003D000D20111968C91981709F445C0992339F0F0
:1003E000A80197012A193B094C095D0906C0A6011D
:1003F00095012E193F09400B510B57FD08C0118282
:100400003382228224833583468357831DC081E053
:1004100081833382228288279927DC01821B930BF8
:10042000A40BB50B84839583A683B7830DC0220FDD
:10043000331F441F551F248335834683578382818E
:1004400093810197938382832481358146815781EB
:10045000DA01C9010197A109B1098F5F9F4FAF4F21
:10046000BF4328F30BC0918333822282EA0CFB1C2A
:100470000C1D1D1DE482F5820683178383E08083B3
:10048000248135814681578157FF1AC0C901AA27A7
:1004900097FDA095BA2F81709070A070B07056959E
:1004A000479537952795822B932BA42BB52B8483C7
:1004B0009583A683B78382819381019693838283F8
:1004C000DF0101C0D201CD01CDB7DEB7E2E10C946E
:1004D000FD3AA0E2B0E0EFE6F2E00C94ED3A698379
:1004E0007A838B839C832D833E834F835887E9E0F7
:1004F000EE2EF12CEC0EFD1ECE010196B7010E94EE
:100500006D078E010F5E1F4FCE010596B8010E9448
:100510006D078A8991E089278A8BC701B801AE01EE
:10052000475E5F4F0E941D010E949806A096E6E07C
:100530000C94093BA0E2B0E0E0EAF2E00C94ED3A62
:1005400069837A838B839C832D833E834F83588773
:10055000F9E0EF2EF12CEC0EFD1ECE010196B70155
:100560000E946D078E010F5E1F4FCE010596B801E8
:100570000E946D07C701B801AE01475E5F4F0E9440
:100580001D010E949806A096E6E00C94093BA0E2AB
:10059000B0E0EDECF2E00C94E13A69837A838B836E
:1005A0009C832D833E834F835887CE010196BE01E5
:1005B000675F7F4F0E946D07CE010596BE016F5E9B
:1005C0007F4F0E946D079985923088F0898982302B
:1005D000C8F0943019F4823051F404C0843029F406
:1005E000923081F488E690E0C6C0923049F420E071
:1005F0009A858A89981321E02A87CE010996BBC083
:10060000823049F420E09A858A89981321E02A8B68
:10061000CE014196B0C02D843E844F8458886D88A9
:100620007E888F88988CEE24FF248701AA24BB241F
:10063000650140E050E060E070E0E0E0F0E0C10122
:1006400081709070892BE9F0E60CF71C081D191DCC
:100650009A01AB012A0D3B1D4C1D5D1D80E090E011
:10066000A0E0B0E0E614F7040805190520F481E0E5
:1006700090E0A0E0B0E0BA01A901480F591F6A1F3D
:100680007B1FAA0CBB1CCC1CDD1C97FE08C081E0A4
:1006900090E0A0E0B0E0A82AB92ACA2ADB2A319665
:1006A000E032F10549F0660C771C881C991C5694C1
:1006B000479437942794C3CFFA85EA892B893C89DC
:1006C0008B859C85280F391F2E5F3F4F17C0CA01AD
:1006D00081709070892B61F016950795F794E794D7
:1006E00080E090E0A0E0B0E8E82AF92A0A2B1B2B72
:1006F00076956795579547952F5F3F4F77FDE7CFE5
:100700000CC0440F551F661F771F17FD4160EE0C8C
:10071000FF1C001F111F21503040403090E059074E
:1007200090E0690790E4790760F32B8F3C8FDB0141
:10073000CA018F779070A070B07080349105A105C8
:10074000B10561F447FD0AC0E114F104010511058A
:1007500029F0405C5F4F6F4F7F4F40781A8EFE1735
:1007600011F081E08A8F4D8F5E8F6F8F78A383E0C9
:10077000898FCE0149960E949806A096E2E10C94DA
:10078000FD3AA8E1B0E0E7ECF3E00C94E93A6983C4
:100790007A838B839C832D833E834F835887B9E074
:1007A000EB2EF12CEC0EFD1ECE010196B7010E943E
:1007B0006D078E010F5E1F4FCE010596B8010E9496
:1007C0006D072985223008F47EC03989323010F453
:1007D000B8017CC08A859A8989278A87243011F0DC
:1007E000223031F4231709F06EC068E670E06EC065
:1007F000343039F41D861E861F86188A1C861B8697
:1008000004C0323021F484E08987B7015FC02B85B2
:100810003C858B899C89281B390B3C872B87ED8471
:10082000FE840F851889AD88BE88CF88D88CEA14DD
:10083000FB040C051D0540F4EE0CFF1C001F111FEE
:10084000215030403C872B8720E030E040E050E0F2
:1008500080E090E0A0E0B0E460E070E0EA14FB0427
:100860000C051D0540F0282B392B4A2B5B2BEA1871
:10087000FB080C091D09B695A79597958795EE0C71
:10088000FF1C001F111F6F5F7F4F6F31710531F724
:10089000DA01C9018F779070A070B0708034910533
:1008A000A105B10561F427FD0AC0E114F1040105B9
:1008B000110529F0205C3F4F4F4F5F4F20782D8767
:1008C0003E874F87588BBE01675F7F4FCB010E94E9
:1008D00098066896EAE00C94053BA8E1B0E0E3E7EF
:1008E000F4E00C94ED3A69837A838B839C832D83A7
:1008F0003E834F83588789E0E82EF12CEC0EFD1ED5
:10090000CE010196B7010E946D078E010F5E1F4F49
:10091000CE010596B8010E946D078985823040F0AE
:100920008989823028F0C701B8010E94E50701C01B
:100930008FEF6896E6E00C94093BA8E1B0E0E3EAAB
:10094000F4E00C94ED3A69837A838B839C832D8346
:100950003E834F83588789E0E82EF12CEC0EFD1E74
:10096000CE010196B7010E946D078E010F5E1F4FE9
:10097000CE010596B8010E946D078985823040F04E
:100980008989823028F0C701B8010E94E50701C0BB
:100990008FEF6896E6E00C94093BA8E1B0E0E3ED48
:1009A000F4E00C94ED3A69837A838B839C832D83E6
:1009B0003E834F83588789E0E82EF12CEC0EFD1E14
:1009C000CE010196B7010E946D078E010F5E1F4F89
:1009D000CE010596B8010E946D078985823040F0EE
:1009E0008989823028F0C701B8010E94E50701C05B
:1009F00081E06896E6E00C94093BACE0B0E0E3E00F
:100A0000F5E00C94F13A69837A838B839C83CE0161
:100A10000196BE016B5F7F4F0E946D078D81823012
:100A200061F1823050F1843021F48E81882351F1BC
:100A30002EC02F81388537FD20C06E812F313105C2
:100A40001CF06623F9F023C08EE190E0821B930B2B
:100A500029853A854B855C8504C056954795379521
:100A600027958A95D2F76623B1F050954095309539
:100A700021953F4F4F4F5F4F0EC020E030E040E0E8
:100A800050E009C02FEF3FEF4FEF5FE704C020E0D9
:100A900030E040E050E8B901CA012C96E2E00C9445
:100AA0000D3BA8E0B0E0E7E5F5E00C94E93A7B0106
:100AB0008C01611571058105910519F482E0898326
:100AC00060C083E089838EE1C82ED12CDC82CB828A
:100AD000ED82FE820F831887C801B7010E94490684
:100AE000FC013197F7FF3BC0222733272E1B3F0B1A
:100AF00057016801022E04C0D694C794B794A794F6
:100B00000A94D2F740E050E060E070E081E090E0CD
:100B1000A0E0B0E004C0880F991FAA1FBB1F2A9550
:100B2000D2F70197A109B1098E219F21A023B123FA
:100B30000097A105B10521F041E050E060E070E0D0
:100B40004A295B296C297D294D835E836F837887D1
:100B50008EE190E08E1B9F0B9C838B8312C030979D
:100B600081F00E2E04C0EE0CFF1C001F111F0A9412
:100B7000D2F7ED82FE820F831887CE1ADF0ADC825D
:100B8000CB821A82CE0101960E9498062896EAE04E
:100B90000C94053BEF92FF920F93DF93CF93CDB769
:100BA000DEB760970FB6F894DEBF0FBECDBFA82F9B
:100BB000002309F461C07E010894E11CF11C88E067
:100BC000F70111928A95E9F729833A834B835C8375
:100BD0006D837E83AF83988780E2801BE82FFF2799
:100BE000E7FDF09549815A816B817C81181684F06C
:100BF00019861A861B861C86882799278E1B9F0BB1
:100C000004C0440F551F661F771F8A95D2F728C06E
:100C1000202F332727FD3095DB01CA01022E04C0A7
:100C2000880F991FAA1FBB1F0A94D2F789879A873A
:100C3000AB87BC8704C07695679557954795EA952D
:100C4000D2F78D819E81AF81B88504C0880F991F2E
:100C5000AA1FBB1F2A95D2F7482B592B6A2B7B2B37
:100C60004D875E876F87788B29853A854B855C85B4
:100C70006D857E85AF8598898A2F60960FB6F8942A
:100C8000DEBF0FBECDBFCF91DF910F91FF90EF90F0
:100C90000895EF92FF920F931F937B018C0180E0E8
:100CA000E81680E0F80681E0080780E0180788F47D
:100CB0008FEFE816F1040105110531F028F088E006
:100CC00090E0A0E0B0E017C080E090E0A0E0B0E0ED
:100CD00012C080E0E81680E0F80680E0080781E0B6
:100CE000180728F088E190E0A0E0B0E004C080E1BF
:100CF00090E0A0E0B0E020E230E040E050E0281BCF
:100D0000390B4A0B5B0B04C016950795F794E794D3
:100D10008A95D2F7F701E059FF4F8081281B3109EE
:100D200041095109C9011F910F91FF90EF9008955A
:100D3000DF92EF92FF920F931F93FC01E480F58006
:100D400006811781D1808081823048F480E090E074
:100D5000A0E1B0E0E82AF92A0A2B1B2BA5C08430B9
:100D600009F49FC0823021F4EE24FF24870105C0DE
:100D7000E114F1040105110519F4E0E0F0E096C07A
:100D8000628173819FEF623879070CF05BC022E8C3
:100D90003FEF261B370B2A3131052CF020E030E0E5
:100DA00040E050E02AC0B801A701022E04C07695A9
:100DB0006795579547950A94D2F781E090E0A0E0B7
:100DC000B0E004C0880F991FAA1FBB1F2A95D2F755
:100DD0000197A109B1098E219F21A023B12300977A
:100DE000A105B10521F081E090E0A0E0B0E09A011A
:100DF000AB01282B392B4A2B5B2BDA01C9018F77EA
:100E00009070A070B07080349105A105B10539F4DF
:100E100027FF09C0205C3F4F4F4F5F4F04C0215C4C
:100E20003F4F4F4F5F4FE0E0F0E02030A0E03A0747
:100E3000A0E04A07A0E45A0710F0E1E0F0E07901F1
:100E40008A0127C06038710564F5FB01E158FF4F46
:100E5000D801C7018F779070A070B0708034910571
:100E6000A105B10539F4E7FE0DC080E490E0A0E0F3
:100E7000B0E004C08FE390E0A0E0B0E0E80EF91E1F
:100E80000A1F1B1F17FF05C016950795F794E794D7
:100E9000319687E016950795F794E7948A95D1F7F0
:100EA00005C0EE24FF248701EFEFF0E06E2F679579
:100EB00066276795902F9F77D794DD24D7948E2F40
:100EC0008695492F462B582F5D29B701CA011F91DE
:100ED0000F91FF90EF90DF900895FC01DB014081BE
:100EE00051812281622F6F7770E0221F2227221FFB
:100EF0009381892F880F822B282F30E0991F992703
:100F0000991F11969C93119721153105A9F541154B
:100F100051056105710511F482E037C082E89FEF49
:100F200013969C938E9312979A01AB0167E0220F60
:100F3000331F441F551F6A95D1F783E08C930DC072
:100F4000220F331F441F551F12968D919C911397AA
:100F5000019713969C938E931297203080E0380768
:100F600080E0480780E4580758F314962D933D938A
:100F70004D935C93179708952F3F310579F44115F0
:100F800051056105710519F484E08C93089564FF9F
:100F900003C081E08C9312C01C9210C02F573040C8
:100FA00013963C932E93129783E08C9387E0440F23
:100FB000551F661F771F8A95D1F7706414964D935D
:100FC0005D936D937C93179708951F93DC01FB014C
:100FD0009C91923008F447C08081823008F443C06D
:100FE000943051F411961C91843099F58181682FC9
:100FF00070E0611B71093FC0843021F0923031F400
:101000008230B9F18181882389F12DC011961C911C
:1010100011978230F1F081811817D9F412962D9131
:101020003C911397828193818217930794F028173C
:101030003907BCF014968D919D910D90BC91A02D17
:101040002481358146815781281739074A075B0774
:1010500018F4112341F00AC082179307A407B507BB
:1010600040F4112319F061E070E005C06FEF7FEFED
:1010700002C060E070E0CB011F910895DF93CF9331
:101080000F92CDB7DEB7AAE2B0E0EAE2F0E08081ED
:1010900088608C93AAE2B0E0EAE2F0E080818061AF
:1010A0008C9389818068898389818B7F89838981F9
:1010B00084608983898182608983E0E4F0E08981AA
:1010C000808389818F7B8983E0E4F0E0898180835C
:1010D00089818F7D898389818F7E8983E0E4F0E037
:1010E000898180838981877F8983E0E4F0E0898139
:1010F000808389818F778983E0E4F0E08981808330
:10110000ABE2B0E0EBE2F0E080818D7F8C93E9E22E
:10111000F0E087E68083E0E4F0E010820F90CF916A
:10112000DF910895DF93CF9300D0CDB7DEB79A83D8
:101130008983EBE2F0E08081829586958770882F25
:1011400090E0817090700097A1F3ECE2F0E089816B
:1011500080830F900F90CF91DF910895DF93CF930D
:1011600000D000D000D0CDB7DEB79E838D8319822A
:101170001A821B821C8217C029813A818D819E812F
:10118000FC01E20FF31F8081882F90E00E949208FB
:1011900089819A81AB81BC810196A11DB11D898392
:1011A0009A83AB83BC8329813A818D819E81FC0126
:1011B000E20FF31F80818823F9F626960FB6F89484
:1011C000DEBF0FBECDBFCF91DF910895DF93CF93E8
:1011D000CDB7DEB7EBE2F0E080818823DCF7ECE20C
:1011E000F0E08081882F90E0CF91DF910895DF9328
:1011F000CF93CDB7DEB783E065E041E00E94851173
:10120000AFE4B0E0EFE4F0E0808180688C93AFE47D
:10121000B0E0EFE4F0E080818F7B8C93AEE4B0E04F
:10122000EEE4F0E0808180618C93AEE4B0E0EEE427
:10123000F0E0808188608C93AFE4B0E0EFE4F0E010
:10124000808182608C93AFE4B0E0EFE4F0E08081D5
:101250008E7F8C93E6E4F0E080E49CE991838083C8
:10126000EAE4F0E080ED97E091838083AEE4B0E0C3
:10127000EEE4F0E080818B7F8C93AEE4B0E0EEE4AE
:10128000F0E0808182608C93AFE4B0E0EFE4F0E0C6
:1012900080818E7F8C93CF91DF910895DF93CF93E0
:1012A000CDB7DEB760970FB6F894DEBF0FBECDBFE7
:1012B00080ED97E0988B8F877DC0EAE4F0E08F8522
:1012C00098899183808380E090E0A0EAB0E48B87E6
:1012D0009C87AD87BE876B857C858D859E8520E04C
:1012E00030E04AE755E40E94C702DC01CB018F835E
:1012F0009887A987BA876F81788589859A8520E044
:1013000030E040E85FE30E94CD0488232CF481E0C4
:1013100090E09E838D833FC06F81788589859A8513
:1013200020E03FEF4FE757E40E946D0418164CF59C
:101330006B857C858D859E8520E030E040E251E420
:101340000E94C702DC01CB01BC01CD010E94490013
:10135000DC01CB019E838D830FC080E991E09C83EB
:101360008B838B819C810197F1F79C838B838D818B
:101370009E8101979E838D838D819E81009769F761
:1013800014C06F81788589859A850E944900DC01A7
:10139000CB019E838D838D819E819A8389838981F0
:1013A0009A810197F1F79A8389838F8598890196AD
:1013B000988B8F878F8598892FE0813A920708F460
:1013C0007CCF60960FB6F894DEBF0FBECDBFCF9135
:1013D000DF910895EF92FF920F931F93DF93CF93C6
:1013E000CDB7DEB72E970FB6F894DEBF0FBECDBFD8
:1013F0009E878D878DEB97E3A6E8B6E389879A876A
:10140000AB87BC878D859E85CC01A0E0B0E0BC0198
:10141000CD010E9451057B018C0180919401909136
:101420009501CC01A0E0B0E0BC01CD010E945105C6
:10143000DC01CB01BC01CD0129853A854B855C855A
:101440000E94C702DC01CB019C01AD01C801B701BC
:101450000E94C103DC01CB018D839E83AF83B887DB
:101460006D817E818F8198850E944900DC01CB01CE
:10147000CC01A0E0B0E08093960190939701A093F7
:101480009801B09399018091960190919701A09154
:101490009801B0919901BC01CD010E9451059B01B9
:1014A000AC016D817E818F8198850E946902DC018B
:1014B000CB0189839A83AB83BC8380919601909101
:1014C0009701A0919801B09199010196A11DB11DBC
:1014D0008093960190939701A0939801B0939901FE
:1014E00060E070E080E89FE329813A814B815C8174
:1014F0000E946902DC01CB017C018D018091960183
:1015000090919701A0919801B0919901BC01CD01F2
:101510000E9451059B01AC01C801B7010E94C7029E
:10152000DC01CB01BC01CD010E944900DC01CB01F3
:1015300090939B0180939A012E960FB6F894DEBF8C
:101540000FBECDBFCF91DF911F910F91FF90EF9014
:101550000895DF93CF93CDB7DEB7A3E5B0E0E3E521
:10156000F0E08081877F8C93A3E5B0E0E3E5F0E0D5
:1015700080818F7B8C93A9E5B0E0E9E5F0E0808184
:1015800081608C9380E091E0909395018093940129
:10159000CF91DF910895DF93CF93CDB7DEB7A3E569
:1015A000B0E0E3E5F0E080818B7F8C93A3E5B0E0D1
:1015B000E3E5F0E0808182608C93A3E5B0E0E3E5B1
:1015C000F0E0808181608C93CF91DF910895DF936B
:1015D000CF93CDB7DEB7A3E5B0E0E3E5F0E08081DF
:1015E0008B7F8C93A3E5B0E0E3E5F0E080818D7F15
:1015F0008C93A3E5B0E0E3E5F0E080818E7F8C93EF
:10160000CF91DF910895DF93CF9300D000D0CDB775
:10161000DEB79A8389837C836B8389819A81009763
:1016200099F089819A8190938B0180938A018B81B3
:101630009C810E94EA09E2E5F0E080919A01909194
:101640009B0180830E94CB0A0F900F900F900F9008
:10165000CF91DF910895DF93CF930F92CDB7DEB78F
:10166000898381E063E041E00E9485110F90CF9172
:10167000DF9108951F920F920FB60F9211242F93AE
:101680003F934F935F936F937F938F939F93AF930A
:10169000BF93EF93FF93DF93CF93CDB7DEB78091E6
:1016A0008C0190918D01A0918E01B0918F010196D6
:1016B000A11DB11D80938C0190938D01A0938E018B
:1016C000B0938F0120918C0130918D0140918E015A
:1016D00050918F018091960190919701A09198016E
:1016E000B0919901281739074A075B0769F4E0911F
:1016F0008A01F0918B01099510928C0110928D0155
:1017000010928E0110928F01CF91DF91FF91EF9196
:10171000BF91AF919F918F917F916F915F914F9109
:101720003F912F910F900FBE0F901F9018951F9211
:101730000F920FB60F9211242F933F934F935F9305
:101740006F937F938F939F93AF93BF93EF93FF9389
:10175000DF93CF93CDB7DEB7809190019091910147
:10176000A0919201B09193010196A11DB11D8093AA
:10177000900190939101A0939201B09393012091D5
:10178000900130919101409192015091930180918B
:10179000960190919701A0919801B0919901281715
:1017A00039074A075B07A1F4E0918A01F0918B01A8
:1017B000099510929001109291011092920110924D
:1017C0009301E2E5F0E080919A0190919B01808382
:1017D000CF91DF91FF91EF91BF91AF919F918F9149
:1017E0007F916F915F914F913F912F910F900FBE1D
:1017F0000F901F901895DF93CF93CDB7DEB7ADE272
:10180000B0E0EDE2F0E0808180618C93ADE2B0E089
:10181000EDE2F0E080818F7D8C93ADE2B0E0EDE20F
:10182000F0E0808181608C9381E064E041E00E947F
:10183000851181E065E041E00E94851181E066E06C
:1018400040E00E94851181E067E041E00E9485113F
:1018500081E064E040E00E948512ADE2B0E0EDE29C
:10186000F0E0808180648C93CF91DF910895DF93C5
:10187000CF930F92CDB7DEB78983EFE2F0E0898195
:101880008083EEE2F0E080818823DCF7EFE2F0E095
:1018900080810F90CF91DF910895DF93CF93CDB7E3
:1018A000DEB7E0E2F0E088E48083A6E5B0E0E6E5BC
:1018B000F0E0808184608C93A6E5B0E0E6E5F0E09E
:1018C000808180648C93E2E2F0E080E48083CF91B9
:1018D000DF910895DF93CF930F92CDB7DEB7898361
:1018E000A6E5B0E0E6E5F0E0808184608C93A6E5B3
:1018F000B0E0E6E5F0E0808180648C93E2E2F0E025
:101900008981880F80830F90CF91DF910895DF93B5
:10191000CF930F92CDB7DEB781E08983A6E5B0E023
:10192000E6E5F0E0808180688C93A6E5B0E0E6E52E
:10193000F0E0808180628C93E6E5F0E0808188238E
:10194000DCF7E1E2F0E08081882F90E0887F907002
:101950008830910511F4198202C082E0898389815F
:101960000F90CF91DF910895DF93CF9300D000D0F7
:101970000F92CDB7DEB71A821B821C821D8281E0D6
:101980008983A6E5B0E0E6E5F0E0808180688C938D
:10199000A6E5B0E0E6E5F0E0808180618C930BC0C5
:1019A0008A819B81AC81BD810196A11DB11D8A8375
:1019B0009B83AC83BD83E6E5F0E08081882364F0FF
:1019C0008A819B81AC81BD81813422E492072FE022
:1019D000A20720E0B20720F38A819B81AC81BD8100
:1019E000803422E492072FE0A20720E0B20718F02B
:1019F0008AE089830EC0E1E2F0E08081882F90E0E8
:101A0000887F9070803A910511F4198202C083E0BA
:101A1000898389810F900F900F900F900F90CF9135
:101A2000DF910895DF93CF9300D0CDB7DEB78A83DF
:101A300081E08983E3E2F0E08A81880F8083A6E574
:101A4000B0E0E6E5F0E080818F7D8C93A6E5B0E024
:101A5000E6E5F0E0808180688C93E6E5F0E0808147
:101A60008823DCF7E1E2F0E08081882F90E0887F36
:101A700090708831910511F4198202C084E0898345
:101A800089810F900F90CF91DF910895DF93CF93CD
:101A900000D0CDB7DEB78A8381E08983E3E2F0E04E
:101AA0008A81882F90E0880F991F81608083A6E546
:101AB000B0E0E6E5F0E080818F7D8C93A6E5B0E0B4
:101AC000E6E5F0E0808180688C93E6E5F0E08081D7
:101AD0008823DCF7E1E2F0E08081882F90E0887FC6
:101AE00090708034910511F4198202C085E08983D9
:101AF00089810F900F90CF91DF910895DF93CF935D
:101B000000D0CDB7DEB78A8381E08983E3E2F0E0DD
:101B10008A818083A6E5B0E0E6E5F0E08081806818
:101B20008C93E6E5F0E080818823DCF7E1E2F0E0E9
:101B30008081882F90E0887F90708832910511F421
:101B4000198202C086E0898389810F900F90CF911E
:101B5000DF910895DF93CF9300D00F92CDB7DEB71A
:101B60009B838A8381E08983A6E5B0E0E6E5F0E027
:101B7000808180688C93E6E5F0E080818823DCF743
:101B8000E1E2F0E08081882F90E0887F90708035DE
:101B9000910541F41982E3E2F0E08081EA81FB8162
:101BA000808302C087E0898389810F900F900F9016
:101BB000CF91DF910895DF93CF9300D0CDB7DEB7FB
:101BC0008A8381E08983E3E2F0E08A818083A6E56D
:101BD000B0E0E6E5F0E0808180688C93E6E5F0E037
:101BE00080818823DCF7E1E2F0E08081882F90E0BB
:101BF000887F9070883B910511F4198202C088E0BB
:101C0000898389810F900F90CF91DF910895DF93A1
:101C1000CF9300D00F92CDB7DEB79B838A8381E04C
:101C20008983A6E5B0E0E6E5F0E0808180688C93EA
:101C3000E6E5F0E080818823DCF7E1E2F0E08081F6
:101C4000882F90E0887F90708038910541F4198248
:101C5000E3E2F0E08081EA81FB81808302C089E0D9
:101C6000898389810F900F900F90CF91DF91089514
:101C7000DF93CF93CDB7DEB7AFE5B0E0EFE5F0E0AF
:101C8000808180688C93CF91DF910895DF93CF930B
:101C9000CDB7DEB7AFE5B0E0EFE5F0E080818F775C
:101CA0008C93CF91DF910895DF93CF93CDB7DEB7BB
:101CB000AE970FB6F894DEBF0FBECDBF8BA78BA536
:101CC000282F30E03EA72DA78DA59EA58130910538
:101CD00009F483C02DA53EA52230310509F4F5C0D5
:101CE0008DA59EA5009709F068C180E090E0A0E274
:101CF000B2E48FA398A7A9A7BAA76FA178A589A5D1
:101D00009AA520E030E04AE755E40E94C702DC01D2
:101D1000CB018BA39CA3ADA3BEA36BA17CA18DA182
:101D20009EA120E030E040E85FE30E94CD048823DC
:101D30002CF481E090E09AA389A33FC06BA17CA121
:101D40008DA19EA120E03FEF4FE757E40E946D0474
:101D500018164CF56FA178A589A59AA520E030E06A
:101D600040E251E40E94C702DC01CB01BC01CD017D
:101D70000E944900DC01CB019AA389A30FC080E92E
:101D800091E098A38F8F8F8D98A10197F1F798A379
:101D90008F8F89A19AA101979AA389A389A19AA15A
:101DA000009769F714C06BA17CA18DA19EA10E9430
:101DB0004900DC01CB019AA389A389A19AA19E8F36
:101DC0008D8F8D8D9E8D0197F1F79E8F8D8F83E086
:101DD00062E00E9407148CA7F2C080E090E0A0E2CD
:101DE000B2E4898F9A8FAB8FBC8F698D7A8D8B8D82
:101DF0009C8D20E030E04AE755E40E94C702DC01F8
:101E0000CB018D8B9E8BAF8BB88F6D897E898F892F
:101E1000988D20E030E040E85FE30E94CD04882305
:101E20002CF481E090E09C8B8B8B3FC06D897E8988
:101E30008F89988D20E03FEF4FE757E40E946D04B3
:101E400018164CF5698D7A8D8B8D9C8D20E030E0D5
:101E500040E251E40E94C702DC01CB01BC01CD018C
:101E60000E944900DC01CB019C8B8B8B0FC080E969
:101E700091E09A8B898B89899A890197F1F79A8BDE
:101E8000898B8B899C8901979C8B8B8B8B899C89F7
:101E9000009769F714C06D897E898F89988D0E949B
:101EA0004900DC01CB019C8B8B8B8B899C89988BA7
:101EB0008F878F8598890197F1F7988B8F8783E0BB
:101EC00063E00E9407148CA77AC080E090E0A0E253
:101ED000B2E48B879C87AD87BE876B857C858D85BB
:101EE0009E8520E030E04AE755E40E94C702DC010D
:101EF000CB018F839887A987BA876F817885898579
:101F00009A8520E030E040E85FE30E94CD0488231A
:101F10002CF481E090E09E838D833FC06F817885B3
:101F200089859A8520E03FEF4FE757E40E946D04D2
:101F300018164CF56B857C858D859E8520E030E0FC
:101F400040E251E40E94C702DC01CB01BC01CD019B
:101F50000E944900DC01CB019E838D830FC080E984
:101F600091E09C838B838B819C810197F1F79C830B
:101F70008B838D819E8101979E838D838D819E8130
:101F8000009769F714C06F81788589859A850E94CA
:101F90004900DC01CB019E838D838D819E819A83D4
:101FA000898389819A810197F1F79A83898381E0F6
:101FB00062E00E9407148CA702C091E09CA78CA548
:101FC000AE960FB6F894DEBF0FBECDBFCF91DF91B6
:101FD0000895DF93CF9300D000D0CDB7DEB78983CB
:101FE0008981282F30E03C832B838B819C81813039
:101FF000910591F02B813C8122303105B1F08B812C
:102000009C810097D9F480E00E94540E1A828823A4
:10201000B1F491E09A8313C081E00E94540E1A82B9
:10202000882369F421E02A830AC082E00E94540ECA
:102030001A82882321F431E03A8301C01A828A810E
:102040000F900F900F900F90CF91DF910895DF9335
:10205000CF93CDB7DEB72A970FB6F894DEBF0FBE89
:10206000CDBF89836A838981282F30E03A87298709
:1020700089859A858130910509F43FC029853A8583
:102080002230310509F46DC089859A85009709F0E1
:102090008DC08A81282F30E038872F838F819885E3
:1020A000009731F02F8138852130310581F01DC036
:1020B000A5E5B0E0E5E5F0E080818E7F8C93A5E5B5
:1020C000B0E0E5E5F0E0808182608C930EC0A5E58C
:1020D000B0E0E5E5F0E0808181608C93A5E5B0E0BB
:1020E000E5E5F0E0808182608C93ABE5B0E0EBE564
:1020F000F0E0808180648C9359C08A81282F30E081
:102100003E832D838D819E81009731F02D813E810C
:102110002130310581F01DC0A5E5B0E0E5E5F0E036
:1021200080818B7F8C93A5E5B0E0E5E5F0E08081D0
:1021300088608C930EC0A5E5B0E0E5E5F0E0808115
:1021400084608C93A5E5B0E0E5E5F0E080818860EF
:102150008C93ABE5B0E0EBE5F0E0808180688C9398
:1021600025C08A81282F30E03C832B838B819C8182
:10217000009731F02B813C812130310549F00FC0AF
:10218000A4E5B0E0E4E5F0E080818F7B8C9307C0AC
:10219000A4E5B0E0E4E5F0E0808180648C93ABE5F9
:1021A000B0E0EBE5F0E0808180628C932A960FB678
:1021B000F894DEBF0FBECDBFCF91DF910895DF93BE
:1021C000CF9300D00F92CDB7DEB789837B836A832C
:1021D0008A819B81009761F08981882F90E0880F28
:1021E000991FFC01E456FE4F8A819B819183808375
:1021F0000F900F900F90CF91DF9108951F920F9243
:102200000FB60F9211242F933F934F935F936F93C9
:102210007F938F939F93AF93BF93EF93FF93DF933E
:10222000CF93CDB7DEB7E0919C01F0919D01099568
:10223000CF91DF91FF91EF91BF91AF919F918F91DE
:102240007F916F915F914F913F912F910F900FBEB2
:102250000F901F9018951F920F920FB60F92112496
:102260002F933F934F935F936F937F938F939F939E
:10227000AF93BF93EF93FF93DF93CF93CDB7DEB7C9
:10228000E0919E01F0919F010995CF91DF91FF911F
:10229000EF91BF91AF919F918F917F916F915F91DE
:1022A0004F913F912F910F900FBE0F901F90189557
:1022B0001F920F920FB60F9211242F933F934F93BB
:1022C0005F936F937F938F939F93AF93BF93EF939E
:1022D000FF93DF93CF93CDB7DEB7E091A001F091EC
:1022E000A1010995CF91DF91FF91EF91BF91AF913E
:1022F0009F918F917F916F915F914F913F912F911E
:102300000F900FBE0F901F901895DF93CF93CDB70E
:10231000DEB727970FB6F894DEBF0FBECDBF898317
:102320006A834B838B81882309F074C08981282FAD
:1023300030E03F832E838E819F818130910559F15A
:102340002E813F81223031052CF48E819F810097B0
:1023500069F0D2C02E813F812230310589F18E8112
:102360009F818330910509F440C0C6C0AAE3B0E064
:10237000EAE3F0E08081482F8A81282F30E081E075
:1023800090E0022E02C0880F991F0A94E2F7809510
:1023900084238C93B1C0A7E3B0E0E7E3F0E0808151
:1023A000482F8A81282F30E081E090E0022E02C081
:1023B000880F991F0A94E2F7809584238C939CC020
:1023C000A4E3B0E0E4E3F0E08081482F8A81282F85
:1023D00030E081E090E0022E02C0880F991F0A943D
:1023E000E2F7809584238C9387C0A1E3B0E0E1E31A
:1023F000F0E08081482F8A81282F30E081E090E052
:10240000022E02C0880F991F0A94E2F78095842358
:102410008C9372C08B81813009F06EC08981282F26
:1024200030E03D832C838C819D818130910549F181
:102430002C813D81223031052CF48C819D810097C7
:1024400061F05AC02C813D812230310571F18C81BF
:102450009D8183309105E9F14FC0AAE3B0E0EAE342
:10246000F0E08081482F8A81282F30E081E090E0E1
:10247000022E02C0880F991F0A94E2F7842B8C93D6
:102480003BC0A7E3B0E0E7E3F0E08081482F8A811A
:10249000282F30E081E090E0022E02C0880F991FC3
:1024A0000A94E2F7842B8C9327C0A4E3B0E0E4E322
:1024B000F0E08081482F8A81282F30E081E090E091
:1024C000022E02C0880F991F0A94E2F7842B8C9386
:1024D00013C0A1E3B0E0E1E3F0E08081482F8A81FE
:1024E000282F30E081E090E0022E02C0880F991F73
:1024F0000A94E2F7842B8C9327960FB6F894DEBFEC
:102500000FBECDBFCF91DF910895DF93CF93CDB7AD
:10251000DEB727970FB6F894DEBF0FBECDBF898315
:102520006A834B838B81882309F074C08981282FAB
:1025300030E03F832E838E819F818130910559F158
:102540002E813F81223031052CF48E819F810097AE
:1025500069F0D2C02E813F812230310589F18E8110
:102560009F818330910509F440C0C6C0ABE3B0E061
:10257000EBE3F0E08081482F8A81282F30E081E072
:1025800090E0022E02C0880F991F0A94E2F780950E
:1025900084238C93B1C0A8E3B0E0E8E3F0E080814D
:1025A000482F8A81282F30E081E090E0022E02C07F
:1025B000880F991F0A94E2F7809584238C939CC01E
:1025C000A5E3B0E0E5E3F0E08081482F8A81282F81
:1025D00030E081E090E0022E02C0880F991F0A943B
:1025E000E2F7809584238C9387C0A2E3B0E0E2E316
:1025F000F0E08081482F8A81282F30E081E090E050
:10260000022E02C0880F991F0A94E2F78095842356
:102610008C9372C08B81813009F06EC08981282F24
:1026200030E03D832C838C819D818130910549F17F
:102630002C813D81223031052CF48C819D810097C5
:1026400061F05AC02C813D812230310571F18C81BD
:102650009D8183309105E9F14FC0ABE3B0E0EBE33E
:10266000F0E08081482F8A81282F30E081E090E0DF
:10267000022E02C0880F991F0A94E2F7842B8C93D4
:102680003BC0A8E3B0E0E8E3F0E08081482F8A8116
:10269000282F30E081E090E0022E02C0880F991FC1
:1026A0000A94E2F7842B8C9327C0A5E3B0E0E5E31E
:1026B000F0E08081482F8A81282F30E081E090E08F
:1026C000022E02C0880F991F0A94E2F7842B8C9384
:1026D00013C0A2E3B0E0E2E3F0E08081482F8A81FA
:1026E000282F30E081E090E0022E02C0880F991F71
:1026F0000A94E2F7842B8C9327960FB6F894DEBFEA
:102700000FBECDBFCF91DF910895DF93CF9300D05F
:1027100000D0CDB7DEB789836A838981282F30E066
:102720003C832B838B819C8181309105D1F02B815F
:102730003C81223031052CF48B819C81009761F023
:102740001EC02B813C812230310581F08B819C8120
:102750008330910581F013C0EAE3F0E08A81808341
:102760000EC0E7E3F0E08A81808309C0E4E3F0E093
:102770008A81808304C0E1E3F0E08A8180830F9046
:102780000F900F900F90CF91DF910895DF93CF932B
:1027900000D000D0CDB7DEB789836A838981282F26
:1027A00030E03C832B838B819C8181309105D1F07B
:1027B0002B813C81223031052CF48B819C81009748
:1027C00061F01EC02B813C812230310581F08B816C
:1027D0009C818330910581F013C0EBE3F0E08A81A6
:1027E00080830EC0E8E3F0E08A81808309C0E5E3DE
:1027F000F0E08A81808304C0E2E3F0E08A81808394
:102800000F900F900F900F90CF91DF910895DF936D
:10281000CF9300D000D00F92CDB7DEB789836A8303
:102820008981282F30E03D832C834C815D814130AC
:10283000510549F18C819D818230910534F42C81C0
:102840003D812115310561F057C04C815D814230D9
:10285000510561F18C819D8183309105D1F14CC08E
:10286000E9E3F0E08081282F30E08A81882F90E032
:10287000A90102C0559547958A95E2F7CA01582FDC
:1028800051705B833AC0E6E3F0E08081282F30E0AE
:102890008A81882F90E0A90102C0559547958A95B5
:1028A000E2F7CA01582F51705B8327C0E3E3F0E0E1
:1028B0008081282F30E08A81882F90E0A90102C012
:1028C000559547958A95E2F7CA01582F51705B8359
:1028D00014C0E0E3F0E08081282F30E08A81882F67
:1028E00090E0A90102C0559547958A95E2F7CA0183
:1028F000582F51705B8301C01B828B810F900F900A
:102900000F900F900F90CF91DF910895DF93CF93A9
:1029100000D000D0CDB7DEB789836A838981282FA4
:1029200030E03C832B838B819C818130910549F180
:102930002B813C81223031052CF48B819C810097C6
:1029400061F05AC02B813C812230310571F18B81BD
:102950009C8183309105E9F14FC0ABE3B0E0EBE33C
:10296000F0E08081482F8A81282F30E081E090E0DC
:10297000022E02C0880F991F0A94E2F784278C93D5
:102980003BC0A8E3B0E0E8E3F0E08081482F8A8113
:10299000282F30E081E090E0022E02C0880F991FBE
:1029A0000A94E2F784278C9327C0A5E3B0E0E5E31F
:1029B000F0E08081482F8A81282F30E081E090E08C
:1029C000022E02C0880F991F0A94E2F784278C9385
:1029D00013C0A2E3B0E0E2E3F0E08081482F8A81F7
:1029E000282F30E081E090E0022E02C0880F991F6E
:1029F0000A94E2F784278C930F900F900F900F901A
:102A0000CF91DF910895DF93CF93CDB7DEB7E6E2A4
:102A1000F0E0808180688083E7E2F0E080818F735E
:102A200080648083E7E2F0E080818F7D8083E6E24E
:102A3000F0E08081887F82608083E6E2F0E0808140
:102A4000877F8083CF91DF910895DF93CF930F929B
:102A5000CDB7DEB78983E7E2F0E089818F71982FE7
:102A60009F718081807E892B80830F90CF91DF9131
:102A70000895DF93CF9300D0CDB7DEB79A838983D3
:102A8000E6E2F0E080818F7E8083E6E2F0E0808104
:102A900080648083E6E2F0E0808180718823D1F356
:102AA000E6E2F0E0808180618083E4E2F0E0808112
:102AB0009181E981FA81918380830F900F90CF916A
:102AC000DF910895DF93CF93CDB7DEB7E6E2F0E074
:102AD00080818F7E8083E6E2F0E080818064808365
:102AE000CF91DF910895DF93CF9300D0CDB7DEB7BC
:102AF0009A838983E4E2F0E080819181E981FA811F
:102B0000918380830F900F90CF91DF910895DF9391
:102B1000CF9300D0CDB7DEB79A83898389819A811C
:102B2000009731F089819A819093A3018093A2014B
:102B30000F900F90CF91DF9108951F920F920FB6D3
:102B40000F9211242F933F934F935F936F937F9333
:102B50008F939F93AF93BF93EF93FF93DF93CF93A5
:102B6000CDB7DEB7E091A201F091A3010995CF9115
:102B7000DF91FF91EF91BF91AF919F918F917F91E5
:102B80006F915F914F913F912F910F900FBE0F90DA
:102B90001F901895DF93CF93CDB7DEB72F970FB661
:102BA000F894DEBF0FBECDBF9B878A874C875D87B9
:102BB0006E877F871E821F82188619868C859D8569
:102BC000AE85BF850197A109B1098A839B83AC8338
:102BD000BD8338C02E813F818A859B85FC01E20F31
:102BE000F31F808189832E813F818A859B85DC014B
:102BF000A20FB31F2A813B818A859B85FC01E20FCE
:102C0000F31F80818C932A813B818A859B85FC01FF
:102C1000E20FF31F898180838E819F81A885B9850A
:102C20000196A11DB11D8E839F83A887B9878A81D4
:102C30009B81AC81BD810197A109B1098A839B83E6
:102C4000AC83BD832E813F81488559858A819B81D4
:102C5000AC81BD81281739074A075B0708F4BACF52
:102C60002F960FB6F894DEBF0FBECDBFCF91DF9188
:102C700008950F931F93DF93CF93CDB7DEB72A97B5
:102C80000FB6F894DEBF0FBECDBF6D837E838F83FA
:102C900098875A87498719821A821B821C8235C0FD
:102CA00029813A8189859A858C01020F131F8D81B4
:102CB0009E81AF81B8852AE030E040E050E0BC0161
:102CC000CD010E94BF3ADC01CB01805DF801808319
:102CD00089819A81AB81BC810196A11DB11D898337
:102CE0009A83AB83BC838D819E81AF81B8852AE0B6
:102CF00030E040E050E0BC01CD010E94BF3ADA0173
:102D0000C9018D839E83AF83B8878D819E81AF81FA
:102D1000B8850097A105B10519F689859A8529819D
:102D20003A814B815C81BA01A9010E94CA152981AF
:102D30003A8189859A85FC01E20FF31F108289810F
:102D40009A81AB81BC81BC01CD012A960FB6F89463
:102D5000DEBF0FBECDBFCF91DF911F910F910895C0
:102D6000AF92BF92CF92DF92EF92FF920F931F9399
:102D7000DF93CF93CDB7DEB766970FB6F894DEBF7B
:102D80000FBECDBF698B7A8B8B8B9C8B5E8B4D8BF3
:102D900069897A898B899C890E944900DC01CB0171
:102DA0008D879E87AF87B88B6D857E858F85988947
:102DB0000E9451059B01AC0169897A898B899C89A4
:102DC0000E946902DC01CB01BC01CD0120E030E0B2
:102DD00048EC52E40E94C702DC01CB01BC01CD01EA
:102DE0000E947500A22EB32EC42ED52EE62EF72EED
:102DF000082F192FAD82BE82CF82D886E986FA8647
:102E00000B871C878D859E85AF85B8892D893E8966
:102E1000BC01CD01A9010E943916DC01CB018983D7
:102E20009A83AB83BC8329813A818D899E89FC0179
:102E3000E20FF31F8EE280834D815E816F81788582
:102E400089819A819C012F5F3F4F8D899E89280F30
:102E5000391FCB01BA01A9010E94391666960FB637
:102E6000F894DEBF0FBECDBFCF91DF911F910F91C0
:102E7000FF90EF90DF90CF90BF90AF900895DF93D9
:102E8000CF9300D00F92CDB7DEB789838981282FE9
:102E900030E03B832A838A819B818430910509F449
:102EA0009BC02A813B8125303105ECF48A819B81CE
:102EB0008130910509F451C02A813B8122303105CE
:102EC0002CF48A819B81009799F103C12A813B816F
:102ED0002230310509F456C08A819B8183309105E7
:102EE00009F465C0F6C02A813B812730310509F419
:102EF000B2C08A819B81883091056CF42A813B8124
:102F00002530310509F47DC08A819B818630910589
:102F100009F48CC0DEC02A813B812830310509F4D8
:102F2000AFC08A819B818930910509F4BEC0D1C0B0
:102F300081E064E040E00E94851281E062E040E0D0
:102F40000E94851281E061E040E00E94851281E0EC
:102F500060E040E00E948512BCC081E064E040E097
:102F60000E94851281E062E040E00E94851281E0CB
:102F700061E040E00E94851281E060E041E00E9453
:102F80008512A7C081E064E040E00E94851281E0E4
:102F900062E040E00E94851281E061E041E00E9431
:102FA000851281E060E040E00E94851292C081E0DD
:102FB00064E040E00E94851281E062E040E00E940F
:102FC000851281E061E041E00E94851281E060E0CD
:102FD00041E00E9485127DC081E064E040E00E94F3
:102FE000851281E062E041E00E94851281E061E0AB
:102FF00040E00E94851281E060E040E00E9485127E
:1030000068C081E064E040E00E94851281E062E0F7
:1030100041E00E94851281E061E040E00E9485125B
:1030200081E060E041E00E94851253C081E064E0ED
:1030300040E00E94851281E062E041E00E9485123A
:1030400081E061E041E00E94851281E060E040E0C3
:103050000E9485123EC081E064E040E00E9485123B
:1030600081E062E041E00E94851281E061E041E0A0
:103070000E94851281E060E041E00E94851229C033
:1030800081E064E041E00E94851281E062E040E07E
:103090000E94851281E061E040E00E94851281E09B
:1030A00060E040E00E94851214C081E064E041E0ED
:1030B0000E94851281E062E040E00E94851281E07A
:1030C00061E040E00E94851281E060E041E00E9402
:1030D00085120F900F900F90CF91DF910895DF939D
:1030E000CF93CDB7DEB781E06FEF0E94851380E00C
:1030F00063E041E00E94851180E062E041E00E94CF
:10310000851181E065E041E00E94851181E066E083
:1031100041E00E94851180E063E041E00E94851259
:1031200080E062E041E00E94851281E065E041E0DC
:103130000E94851281E066E041E00E948512CF91F5
:10314000DF910895DF93CF930F92CDB7DEB78983D8
:1031500080E063E040E00E94851280E062E041E0B0
:103160000E94851281E065E041E00E94851281E0C5
:1031700066E041E00E94851289810E943F170F900E
:10318000CF91DF910895DF93CF930F92CDB7DEB744
:10319000898380E063E041E00E94851280E062E084
:1031A00040E00E94851281E065E041E00E948512C6
:1031B00081E066E041E00E94851289810E943F170C
:1031C0000F90CF91DF910895DF93CF930F92CDB7FA
:1031D000DEB7898380E063E041E00E94851280E0F1
:1031E00062E041E00E94851281E065E040E00E94DB
:1031F000851281E066E041E00E94851289810E948B
:103200003F170F90CF91DF910895DF93CF930F92E7
:10321000CDB7DEB7898380E063E041E00E9485128C
:1032200080E062E041E00E94851281E065E041E0DB
:103230000E94851281E066E040E00E94851289814B
:103240000E943F170F90CF91DF910895DF93CF93A6
:1032500000D000D0CDB7DEB789838981282F30E038
:103260003C832B838B819C818430910509F44BC076
:103270002B813C8125303105D4F48B819C818130B8
:103280009105C1F12B813C81223031052CF48B81D9
:103290009C81009761F149C02B813C81223031052E
:1032A00061F18B819C818330910551F13EC02B816E
:1032B0003C812730310581F18B819C8188309105DB
:1032C0005CF42B813C812530310501F18B819C819F
:1032D00086309105F1F029C02B813C8128303105E1
:1032E000F1F08B819C8189309105E1F01EC09EE751
:1032F0009A831DC02CE02A831AC036EB3A8317C08C
:103300008EE98A8314C09CEC9A8311C02AED2A832B
:103310000EC03AEF3A830BC08EE08A8308C09FEF5D
:103320009A8305C02EED2A8302C03EE73A838A8144
:103330000F900F900F900F90CF91DF910895DF9332
:10334000CF93CDB7DEB780E06FEF0E94851382E0A8
:1033500066E041E00E94851182E067E041E00E9462
:103360008511CF91DF910895DF93CF93CDB7DEB76D
:103370006F970FB6F894DEBF0FBECDBF8F8F8F8DC6
:103380009AE0692F0E94B33A892F8E8F8F8D9AE031
:10339000692F0E94B33A8D8F8E8D0E942619982F27
:1033A00080E0692F0E94C61382E066E041E00E943F
:1033B000851282E067E040E00E94851280E090E0A4
:1033C000A0E8BFE3898F9A8FAB8FBC8F698D7A8D10
:1033D0008B8D9C8D20E030E04AE755E40E94C702C7
:1033E000DC01CB018D8B9E8BAF8BB88F6D897E8975
:1033F0008F89988D20E030E040E85FE30E94CD04A3
:1034000088232CF481E090E09C8B8B8B3FC06D89EE
:103410007E898F89988D20E03FEF4FE757E40E9427
:103420006D0418164CF5698D7A8D8B8D9C8D20E07E
:1034300030E040E251E40E94C702DC01CB01BC0154
:10344000CD010E944900DC01CB019C8B8B8B0FC00E
:1034500080E991E09A8B898B89899A890197F1F7A4
:103460009A8B898B8B899C8901979C8B8B8B8B8901
:103470009C89009769F714C06D897E898F89988D22
:103480000E944900DC01CB019C8B8B8B8B899C8932
:10349000988B8F878F8598890197F1F7988B8F8705
:1034A0008D8D0E942619982F80E0692F0E94C613E7
:1034B00082E066E040E00E94851282E067E041E041
:1034C0000E94851280E090E0A0E8BFE38B879C8794
:1034D000AD87BE876B857C858D859E8520E030E03D
:1034E0004AE755E40E94C702DC01CB018F8398872D
:1034F000A987BA876F81788589859A8520E030E031
:1035000040E85FE30E94CD0488232CF481E090E042
:103510009E838D833FC06F81788589859A8520E061
:103520003FEF4FE757E40E946D0418164CF56B858A
:103530007C858D859E8520E030E040E251E40E944C
:10354000C702DC01CB01BC01CD010E944900DC01B6
:10355000CB019E838D830FC080E991E09C838B8398
:103560008B819C810197F1F79C838B838D819E8158
:1035700001979E838D838D819E81009769F714C08A
:103580006F81788589859A850E944900DC01CB018D
:103590009E838D838D819E819A83898389819A817F
:1035A0000197F1F79A83898382E066E040E00E9408
:1035B000851282E067E040E00E9485126F960FB6A8
:1035C000F894DEBF0FBECDBFCF91DF910895DF939A
:1035D000CF93CDB7DEB780E065E041E00E94851172
:1035E00080E064E041E00E94851181E067E041E015
:1035F0000E94851180E066E041E00E94851180E034
:103600000E94511B81E00E94511B82E00E94511BCD
:1036100083E00E94511BCF91DF910895DF93CF93F8
:1036200000D00F92CDB7DEB789838981282F30E093
:103630003B832A838A819B8181309105D9F02A813D
:103640003B81223031052CF48A819B81009761F007
:1036500022C02A813B812230310591F08A819B81F1
:103660008330910599F017C080E065E041E00E9449
:10367000851211C080E064E041E00E9485120BC019
:1036800081E067E041E00E94851205C080E066E0CD
:1036900041E00E9485120F900F900F90CF91DF9123
:1036A0000895DF93CF9300D00F92CDB7DEB7898313
:1036B0008981282F30E03B832A838A819B81813056
:1036C0009105D9F02A813B81223031052CF48A8181
:1036D0009B81009761F022C02A813B812230310515
:1036E00091F08A819B818330910599F017C080E029
:1036F00065E040E00E94851211C080E064E040E097
:103700000E9485120BC081E067E040E00E948512B4
:1037100005C080E066E040E00E9485120F900F90A7
:103720000F90CF91DF910895DF93CF9300D00F9248
:10373000CDB7DEB789838981282F30E03B832A8388
:103740008A819B8181309105D1F02A813B81223091
:1037500031052CF48A819B81009761F01EC02A817B
:103760003B812230310581F08A819B818330910534
:1037700081F013C080E065E00E9486140EC080E0F6
:1037800064E00E94861409C081E067E00E9486140C
:1037900004C080E066E00E9486140F900F900F90A6
:1037A000CF91DF910895DF93CF93CDB7DEB7E9973F
:1037B0000FB6F894DEBF0FBECDBF89AF80E062E0E8
:1037C00040E00E94851289AD982F991F9927991F73
:1037D00081E064E0492F0E94851289AD829586952B
:1037E00086958370982F917081E062E0492F0E9446
:1037F000851289AD829586958770982F917081E0AA
:1038000061E0492F0E94851289AD82958F70982FB3
:10381000917081E060E0492F0E94851280E062E0B3
:1038200041E00E94851280E090E0A0E0B0E48DAB22
:103830009EABAFABB8AF6DA97EA98FA998AD20E0C4
:1038400030E04AE755E40E94C702DC01CB0189ABB6
:103850009AABABABBCAB69A97AA98BA99CA920E0B8
:1038600030E040E85FE30E94CD0488232CF481E03F
:1038700090E098AB8FA73FC069A97AA98BA99CA9B2
:1038800020E03FEF4FE757E40E946D0418164CF517
:103890006DA97EA98FA998AD20E030E040E251E407
:1038A0000E94C702DC01CB01BC01CD010E9449008E
:1038B000DC01CB0198AB8FA70FC080E991E09EA7F8
:1038C0008DA78DA59EA50197F1F79EA78DA78FA522
:1038D00098A9019798AB8FA78FA598A9009769F72A
:1038E00014C069A97AA98BA99CA90E944900DC018E
:1038F000CB0198AB8FA78FA598A99CA78BA78BA569
:103900009CA50197F1F79CA78BA780E062E040E0BF
:103910000E94851280E090E0A0EAB1E48FA398A70E
:10392000A9A7BAA76FA178A589A59AA520E030E03C
:103930004AE755E40E94C702DC01CB018BA39CA39C
:10394000ADA3BEA36BA17CA18DA19EA120E030E020
:1039500040E85FE30E94CD0488232CF481E090E0EE
:103960009AA389A33FC06BA17CA18DA19EA120E059
:103970003FEF4FE757E40E946D0418164CF56FA116
:1039800078A589A59AA520E030E040E251E40E94A4
:10399000C702DC01CB01BC01CD010E944900DC0162
:1039A000CB019AA389A30FC080E991E098A38F8FE0
:1039B0008F8D98A10197F1F798A38F8F89A19AA174
:1039C00001979AA389A389A19AA1009769F714C0C6
:1039D0006BA17CA18DA19EA10E944900DC01CB01BD
:1039E0009AA389A389A19AA19E8F8D8F8D8D9E8D7B
:1039F0000197F1F79E8F8D8F89AD86958695869577
:103A0000982F917081E064E0492F0E94851289AD62
:103A100086958695982F917081E062E0492F0E94EB
:103A2000851289AD8695982F917081E061E0492FCC
:103A30000E94851289AD982F917081E060E0492F36
:103A40000E94851280E062E041E00E94851280E0E1
:103A500090E0A0E0B0E4898F9A8FAB8FBC8F698D26
:103A60007A8D8B8D9C8D20E030E04AE755E40E94F2
:103A7000C702DC01CB018D8B9E8BAF8BB88F6D891C
:103A80007E898F89988D20E030E040E85FE30E94D6
:103A9000CD0488232CF481E090E09C8B8B8B3FC07D
:103AA0006D897E898F89988D20E03FEF4FE757E43D
:103AB0000E946D0418164CF5698D7A8D8B8D9C8D46
:103AC00020E030E040E251E40E94C702DC01CB017B
:103AD000BC01CD010E944900DC01CB019C8B8B8B8A
:103AE0000FC080E991E09A8B898B89899A89019727
:103AF000F1F79A8B898B8B899C8901979C8B8B8B97
:103B00008B899C89009769F714C06D897E898F899C
:103B1000988D0E944900DC01CB019C8B8B8B8B899B
:103B20009C89988B8F878F8598890197F1F7988B5F
:103B30008F8780E062E040E00E94851280E090E0A4
:103B4000A0EAB1E48B879C87AD87BE876B857C85B7
:103B50008D859E8520E030E04AE755E40E94C7024B
:103B6000DC01CB018F839887A987BA876F8178851D
:103B700089859A8520E030E040E85FE30E94CD042B
:103B800088232CF481E090E09E838D833FC06F8179
:103B9000788589859A8520E03FEF4FE757E40E94BA
:103BA0006D0418164CF56B857C858D859E8520E00F
:103BB00030E040E251E40E94C702DC01CB01BC01CD
:103BC000CD010E944900DC01CB019E838D830FC093
:103BD00080E991E09C838B838B819C810197F1F735
:103BE0009C838B838D819E8101979E838D838D81A4
:103BF0009E81009769F714C06F81788589859A85C1
:103C00000E944900DC01CB019E838D838D819E81C2
:103C10009A83898389819A810197F1F79A838983AD
:103C2000E9960FB6F894DEBF0FBECDBFCF91DF91FE
:103C300008950F931F93DF93CF93CDB7DEB7C2568E
:103C4000D0400FB6F894DEBF0FBECDBF80E063E07A
:103C500041E00E94851180E062E041E00E94851110
:103C600081E060E041E00E94851181E061E041E097
:103C70000E94851181E062E041E00E94851181E0AF
:103C800064E041E00E948511FE01E15AFF4F80E0AF
:103C900090E0A0EFB1E480839183A283B3838E018F
:103CA000055A1F4FFE01E15AFF4F608171818281E9
:103CB000938120E030E04AE755E40E94C702DC012E
:103CC000CB01F80180839183A283B383FE01E55A7F
:103CD000FF4F608171818281938120E030E040E874
:103CE0005FE30E94CD04882344F4FE01E75AFF4FAE
:103CF00081E090E09183808364C0FE01E55AFF4F2C
:103D0000608171818281938120E03FEF4FE757E42A
:103D10000E946D0418160CF043C0FE01E15AFF4FDB
:103D2000608171818281938120E030E040E251E442
:103D30000E94C702DC01CB018E01075A1F4FBC0154
:103D4000CD010E944900DC01CB01F8019183808301
:103D50001FC0FE01E95AFF4F80E991E09183808303
:103D6000FE01E95AFF4F808191810197F1F7FE0131
:103D7000E95AFF4F91838083DE01A75ABF4FFE01AE
:103D8000E75AFF4F80819181019711969C938E9302
:103D9000FE01E75AFF4F808191810097D1F627C03D
:103DA0008E01075A1F4FFE01E55AFF4F6081718156
:103DB000828193810E944900DC01CB01F80191834B
:103DC0008083DE01AB5ABF4FFE01E75AFF4F80816F
:103DD00091818D939C93FE01EB5AFF4F80819181DD
:103DE0000197F1F7FE01EB5AFF4F9183808382E048
:103DF0000E942722FE01EF5AFF4F80E090E0A0E0F2
:103E0000B0E480839183A283B3838E01035B1F4F51
:103E1000FE01EF5AFF4F608171818281938120E022
:103E200030E04AE755E40E94C702DC01CB01F8010B
:103E300080839183A283B383FE01E35BFF4F6081A4
:103E400071818281938120E030E040E85FE30E944D
:103E5000CD04882344F4FE01E55BFF4F81E090E050
:103E60009183808364C0FE01E35BFF4F60817181B9
:103E70008281938120E03FEF4FE757E40E946D0479
:103E800018160CF043C0FE01EF5AFF4F608171819C
:103E90008281938120E030E040E251E40E94C70239
:103EA000DC01CB018E01055B1F4FBC01CD010E94DF
:103EB0004900DC01CB01F801918380831FC0FE0122
:103EC000E75BFF4F80E991E091838083FE01E75B30
:103ED000FF4F808191810197F1F7FE01E75BFF4F72
:103EE00091838083DE01A55BBF4FFE01E55BFF4F41
:103EF00080819181019711969C938E93FE01E55BE1
:103F0000FF4F808191810097D1F627C08E01055B1C
:103F10001F4FFE01E35BFF4F6081718182819381BE
:103F20000E944900DC01CB01F80191838083DE010E
:103F3000A95BBF4FFE01E55BFF4F808191818D93AF
:103F40009C93FE01E95BFF4F808191810197F1F71E
:103F5000FE01E95BFF4F9183808388E20E94272264
:103F6000FE01ED5BFF4F80E090E0A0E0B0E48083D5
:103F70009183A283B3838E01015C1F4FFE01ED5B31
:103F8000FF4F608171818281938120E030E04AE7B8
:103F900055E40E94C702DC01CB01F80180839183C4
:103FA000A283B383FE01FF96608171818281938138
:103FB00020E030E040E85FE30E94CD0488232CF449
:103FC00081E090E09EAF8DAF46C0FE01FF9660811C
:103FD00071818281938120E03FEF4FE757E40E9497
:103FE0006D04181664F5FE01ED5BFF4F6081718171
:103FF0008281938120E030E040E251E40E94C702D8
:10400000DC01CB01BC01CD010E944900DC01CB01E8
:104010009EAF8DAF0FC080E991E09CAF8BAF8BADB1
:104020009CAD0197F1F79CAF8BAF8DAD9EAD019725
:104030009EAF8DAF8DAD9EAD009769F716C0FE01A6
:10404000FF9660817181828193810E944900DC0129
:10405000CB019EAF8DAF8DAD9EAD9AAF89AF89ADCF
:104060009AAD0197F1F79AAF89AF8CE00E942722B1
:1040700080E090E0A0E0B0E48DAB9EABAFABB8AF1A
:104080006DA97EA98FA998AD20E030E04AE755E4FC
:104090000E94C702DC01CB0189AB9AABABABBCABD6
:1040A00069A97AA98BA99CA920E030E040E85FE3E8
:1040B0000E94CD0488232CF481E090E098AB8FA778
:1040C0003FC069A97AA98BA99CA920E03FEF4FE7DF
:1040D00057E40E946D0418164CF56DA97EA98FA9AE
:1040E00098AD20E030E040E251E40E94C702DC01DC
:1040F000CB01BC01CD010E944900DC01CB0198AB92
:104100008FA70FC080E991E09EA78DA78DA59EA5E2
:104110000197F1F79EA78DA78FA598A9019798AB56
:104120008FA78FA598A9009769F714C069A97AA9E4
:104130008BA99CA90E944900DC01CB0198AB8FA7F9
:104140008FA598A99CA78BA78BA59CA50197F1F794
:104150009CA78BA781E00E94272280E090E0A0E04E
:10416000B0E48FA398A7A9A7BAA76FA178A589A53E
:104170009AA520E030E04AE755E40E94C702DC013E
:10418000CB018BA39CA3ADA3BEA36BA17CA18DA1EE
:104190009EA120E030E040E85FE30E94CD04882348
:1041A0002CF481E090E09AA389A33FC06BA17CA18D
:1041B0008DA19EA120E03FEF4FE757E40E946D04E0
:1041C00018164CF56FA178A589A59AA520E030E0D6
:1041D00040E251E40E94C702DC01CB01BC01CD01E9
:1041E0000E944900DC01CB019AA389A30FC080E99A
:1041F00091E098A38F8F8F8D98A10197F1F798A3E5
:104200008F8F89A19AA101979AA389A389A19AA1C5
:10421000009769F714C06BA17CA18DA19EA10E949B
:104220004900DC01CB019AA389A389A19AA19E8FA1
:104230008D8F8D8D9E8D0197F1F79E8F8D8F86E0EE
:104240000E94272280E090E0A0E0B0E4898F9A8F5E
:10425000AB8FBC8F698D7A8D8B8D9C8D20E030E08B
:104260004AE755E40E94C702DC01CB018D8B9E8B8F
:10427000AF8BB88F6D897E898F89988D20E030E073
:1042800040E85FE30E94CD0488232CF481E090E0B5
:104290009C8B8B8B3FC06D897E898F89988D20E0A8
:1042A0003FEF4FE757E40E946D0418164CF5698DF7
:1042B0007A8D8B8D9C8D20E030E040E251E40E94AD
:1042C000C702DC01CB01BC01CD010E944900DC0129
:1042D000CB019C8B8B8B0FC080E991E09A8B898BF3
:1042E00089899A890197F1F79A8B898B8B899C89A7
:1042F00001979C8B8B8B8B899C89009769F714C0E5
:104300006D897E898F89988D0E944900DC01CB01DF
:104310009C8B8B8B8B899C89988B8F878F859889B9
:104320000197F1F7988B8F8781E00E94272280E028
:1043300090E0A0E0B0E48B879C87AD87BE876B855B
:104340007C858D859E8520E030E04AE755E40E941B
:10435000C702DC01CB018F839887A987BA876F8159
:10436000788589859A8520E030E040E85FE30E9407
:10437000CD0488232CF481E090E09E838D833FC0A0
:104380006F81788589859A8520E03FEF4FE757E474
:104390000E946D0418164CF56B857C858D859E8575
:1043A00020E030E040E251E40E94C702DC01CB0192
:1043B000BC01CD010E944900DC01CB019E838D83AD
:1043C0000FC080E991E09C838B838B819C81019756
:1043D000F1F79C838B838D819E8101979E838D83D2
:1043E0008D819E81009769F714C06F8178858985DA
:1043F0009A850E944900DC01CB019E838D838D81CB
:104400009E819A83898389819A810197F1F79A83A2
:104410008983CE59DF4F0FB6F894DEBF0FBECDBFF4
:10442000CF91DF911F910F910895DF93CF930F925A
:10443000CDB7DEB7898380E063E041E00E9485125A
:1044400089810E94D31B0F90CF91DF910895DF9354
:10445000CF930F92CDB7DEB7898380E063E040E071
:104460000E94851289810E94D31B0F90CF91DF910A
:104470000895DF93CF9300D000D000D0CDB7DEB742
:104480009E838D8319821A821B821C8215C029810A
:104490003A818D819E81FC01E20FF31F80810E9491
:1044A000152289819A81AB81BC810196A11DB11D24
:1044B00089839A83AB83BC8329813A818D819E81D4
:1044C000FC01E20FF31F8081882309F726960FB6BF
:1044D000F894DEBF0FBECDBFCF91DF910895EF926C
:1044E000FF920F931F93DF93CF93CDB7DEB728973B
:1044F0000FB6F894DEBF0FBECDBF6D837E838F8372
:1045000098871092B70183E190E0A0E0B0E0898342
:104510009A83AB83BC8334C089819A81AB81BC818F
:104520000197A109B10989839A83AB83BC83E98090
:10453000FA800B811C818D819E81AF81B8852AE034
:1045400030E040E050E0BC01CD010E94BF3ADC0108
:10455000CB01805DF701EC55FE4F80838D819E81FC
:10456000AF81B8852AE030E040E050E0BC01CD01E9
:104570000E94BF3ADA01C9018D839E83AF83B88759
:104580008D819E81AF81B8850097A105B10521F687
:1045900089819A818C559E4F9093B9018093B8017F
:1045A0008091B8019091B9010E94392228960FB6E6
:1045B000F894DEBF0FBECDBFCF91DF911F910F9159
:1045C000FF90EF900895DF93CF9300D000D00F922B
:1045D000CDB7DEB78A836B838A81282F30E03D8395
:1045E0002C838C819D81009731F02C813D8121307D
:1045F000310521F006C08B81898303C08B81805CEB
:104600008983898180580E9427220F900F900F90F4
:104610000F900F90CF91DF910895DF93CF93CDB797
:10462000DEB781E00E942722CF91DF910895DF93CA
:10463000CF9300D0CDB7DEB71A820FC08A81882F02
:1046400090E0FC01EA58FE4F908182E0692F41E042
:104650000E9485118A818F5F8A838A81843070F3FA
:1046600019821BC08981882F90E0FC01EE58FE4F13
:10467000908183E0692F40E00E9485118981882F15
:1046800090E0FC01EE58FE4F908183E0692F41E0FD
:104690000E94851289818F5F89838981843010F31C
:1046A0000F900F90CF91DF910895DF93CF93CDB707
:1046B000DEB763970FB6F894DEBF0FBECDBF8FEFA6
:1046C0008F87198ACBC08989882F90E0FC01EA582E
:1046D000FE4F908182E0692F40E00E9485121A8A85
:1046E000AAC08A89882F90E0FC01EE58FE4F908185
:1046F00083E0692F0E940714888B8889882309F03A
:1047000097C08989482F50E08A89282F30E0CA0154
:10471000880F991F880F991F820F931FFC01E6587D
:10472000FE4F80818F870CC08A89882F90E0FC0122
:10473000EE58FE4F908183E0692F0E940714888B0A
:104740008889882389F380E090E0A0EAB1E48B8730
:104750009C87AD87BE876B857C858D859E8520E097
:1047600030E04AE755E40E94C702DC01CB018F83A9
:104770009887A987BA876F81788589859A8520E08F
:1047800030E040E85FE30E94CD0488232CF481E010
:1047900090E09E838D833FC06F81788589859A855F
:1047A00020E03FEF4FE757E40E946D0418164CF5E8
:1047B0006B857C858D859E8520E030E040E251E46C
:1047C0000E94C702DC01CB01BC01CD010E9449005F
:1047D000DC01CB019E838D830FC080E991E09C8337
:1047E0008B838B819C810197F1F79C838B838D81D7
:1047F0009E8101979E838D838D819E81009769F7AD
:1048000014C06F81788589859A850E944900DC01F2
:10481000CB019E838D838D819E819A83898389813B
:104820009A810197F1F79A8389838F858B8B1CC0BE
:104830008A898F5F8A8B8A89843008F452CF89896C
:10484000882F90E0FC01EA58FE4F908182E0692FAA
:1048500041E00E94851289898F5F898B8989843024
:1048600008F431CF8F858B8B8B8963960FB6F894C4
:10487000DEBF0FBECDBFCF91DF910895DF93CF9301
:10488000CDB7DEB7AE970FB6F894DEBF0FBECDBF83
:104890008BA78BA5282F30E03EA72DA78DA59EA521
:1048A0008130910509F483C02DA53EA52230310544
:1048B00009F4F5C08DA59EA5009709F068C180E0B8
:1048C00090E0A0E2B2E48FA398A7A9A7BAA76FA12E
:1048D00078A589A59AA520E030E04AE755E40E9432
:1048E000C702DC01CB018BA39CA3ADA3BEA36BA12C
:1048F0007CA18DA19EA120E030E040E85FE30E9412
:10490000CD0488232CF481E090E09AA389A33FC0D2
:104910006BA17CA18DA19EA120E03FEF4FE757E462
:104920000E946D0418164CF56FA178A589A59AA56B
:1049300020E030E040E251E40E94C702DC01CB01FC
:10494000BC01CD010E944900DC01CB019AA389A3DF
:104950000FC080E991E098A38F8F8F8D98A1019768
:10496000F1F798A38F8F89A19AA101979AA389A3A0
:1049700089A19AA1009769F714C06BA17CA18DA1B0
:104980009EA10E944900DC01CB019AA389A389A1C1
:104990009AA19E8F8D8F8D8D9E8D0197F1F79E8FA1
:1049A0008D8F83E062E00E9407148CA7F2C080E044
:1049B00090E0A0E2B2E4898F9A8FAB8FBC8F698DB3
:1049C0007A8D8B8D9C8D20E030E04AE755E40E9483
:1049D000C702DC01CB018D8B9E8BAF8BB88F6D89AD
:1049E0007E898F89988D20E030E040E85FE30E9467
:1049F000CD0488232CF481E090E09C8B8B8B3FC00E
:104A00006D897E898F89988D20E03FEF4FE757E4CD
:104A10000E946D0418164CF5698D7A8D8B8D9C8DD6
:104A200020E030E040E251E40E94C702DC01CB010B
:104A3000BC01CD010E944900DC01CB019C8B8B8B1A
:104A40000FC080E991E09A8B898B89899A890197B7
:104A5000F1F79A8B898B8B899C8901979C8B8B8B27
:104A60008B899C89009769F714C06D897E898F892D
:104A7000988D0E944900DC01CB019C8B8B8B8B892C
:104A80009C89988B8F878F8598890197F1F7988BF0
:104A90008F8783E063E00E9407148CA77AC080E0D0
:104AA00090E0A0E2B2E48B879C87AD87BE876B85E0
:104AB0007C858D859E8520E030E04AE755E40E94A4
:104AC000C702DC01CB018F839887A987BA876F81E2
:104AD000788589859A8520E030E040E85FE30E9490
:104AE000CD0488232CF481E090E09E838D833FC029
:104AF0006F81788589859A8520E03FEF4FE757E4FD
:104B00000E946D0418164CF56B857C858D859E85FD
:104B100020E030E040E251E40E94C702DC01CB011A
:104B2000BC01CD010E944900DC01CB019E838D8335
:104B30000FC080E991E09C838B838B819C810197DE
:104B4000F1F79C838B838D819E8101979E838D835A
:104B50008D819E81009769F714C06F817885898562
:104B60009A850E944900DC01CB019E838D838D8153
:104B70009E819A83898389819A810197F1F79A832B
:104B8000898381E062E00E9407148CA702C091E053
:104B90009CA78CA5AE960FB6F894DEBF0FBECDBF16
:104BA000CF91DF910895DF93CF93CDB7DEB783E048
:104BB00062E040E00E94851183E063E040E00E94F3
:104BC000851181E062E040E00E948511CF91DF9184
:104BD0000895DF93CF9300D000D0CDB7DEB789839F
:104BE0008981282F30E03C832B838B819C8181300D
:104BF000910591F02B813C8122303105B1F08B8100
:104C00009C810097D9F480E00E943E241A82882378
:104C1000B1F491E09A8313C081E00E943E241A828D
:104C2000882369F421E02A830AC082E00E943E249E
:104C30001A82882321F431E03A8301C01A828A81E2
:104C40000F900F900F900F90CF91DF910895DF9309
:104C5000CF93CDB7DEB727970FB6F894DEBF0FBE60
:104C6000CDBF9D838C836E834F838AE190E00E9449
:104C7000FF289A83898389819A81009709F46FC0FC
:104C80008091CA019091CB01009741F489819A816A
:104C90009093CB018093CA010E948E288E8182302E
:104CA00010F081E08E83E981FA81118E108EE98106
:104CB000FA818E81868BE981FA818F81878BE981E8
:104CC000FA818C819D819183808389819A8102966A
:104CD0000E94952989819A810C960E949529E981E3
:104CE000FA8189819A8191878087E981FA81898116
:104CF0009A81938B828B8E81282F30E086E090E022
:104D0000821B930BE981FA8195878487E981FA8177
:104D100096898091CC01891728F4E981FA818689E6
:104D20008093CC01E981FA818689282F30E0C9017E
:104D3000880F991F880F991F880F991F820F931F43
:104D4000AC014D525E4F89819A819C012E5F3F4F8D
:104D5000CA01B9010E94A52981E08B8302C08FEFAF
:104D60008B838B8127960FB6F894DEBF0FBECDBF25
:104D7000CF91DF910895DF93CF9300D000D000D082
:104D8000CDB7DEB79C838B837E836D832091CD016D
:104D90003091CE018B819C81820F931F9A838983EE
:104DA0008091CA019091CB0102960E945D2AE09108
:104DB000CA01F091CB0189819A81938382832091EA
:104DC000CD013091CE0189819A818217930770F4C9
:104DD0008091F9019091FA012091CA013091CB01A3
:104DE0002E5F3F4FB9010E94F1290DC08091F7015C
:104DF0009091F8012091CA013091CB012E5F3F4F75
:104E0000B9010E94F1298D819E81009761F0809106
:104E1000CA019091CB019C01245F3F4F8D819E81FF
:104E2000B9010E94F12926960FB6F894DEBF0FBE95
:104E3000CDBFCF91DF910895DF93CF9300D0CDB751
:104E4000DEB73AC0F894E0910002F0910102868149
:104E500097819A83898389819A810C960E945D2A21
:104E6000789489819A8102960E945D2AE981FA816B
:104E700096898091CC01891728F4E981FA81868985
:104E80008093CC01E981FA818689282F30E0C9011D
:104E9000880F991F880F991F880F991F820F931FE2
:104EA000AC014D525E4F89819A819C012E5F3F4F2C
:104EB000CA01B9010E94A5298091FB01882309F04C
:104EC000C1CF0F900F90CF91DF910895DF93CF93D3
:104ED00000D000D0CDB7DEB70E9449362091CF0177
:104EE0003091D001821B930B9093D2018093D1011A
:104EF00085C08091CD019091CE0101969093CE0115
:104F00008093CD018091D1019091D201019790932E
:104F1000D2018093D1018091CD019091CE01009773
:104F200009F064C08091F7019091F8019A83898318
:104F30008091F9019091FA019093F8018093F70123
:104F400089819A819093FA018093F9014FC0E09191
:104F5000F701F091F8010580F681E02D86819781B7
:104F60009C838B83EB81FC81228133818091CD01F5
:104F70009091CE018217930708F440C0F8948B817A
:104F80009C8102960E945D2AEB81FC81848995892F
:104F9000009729F08B819C810C960E945D2A789461
:104FA000EB81FC8196898091CC01891728F4EB81F3
:104FB000FC8186898093CC01EB81FC818689282F36
:104FC00030E0C901880F991F880F991F880F991F1A
:104FD000820F931FAC014D525E4F8B819C819C01CF
:104FE0002E5F3F4FCA01B9010E94A529E091F70148
:104FF000F091F8018081882309F0A9CF8091D10137
:105000009091D201009709F074CF8091CD019091D9
:10501000CE019093D0018093CF010F900F900F900D
:105020000F90CF91DF910895DF93CF9300D0CDB74C
:10503000DEB70E941C270E9466270AC08091CC011F
:10504000882309F466C08091CC0181508093CC0103
:105050008091CC01282F30E0C901880F991F880F5B
:10506000991F880F991F820F931FFC01ED52FE4F6D
:105070008081882319F38091CC01282F30E0C90169
:10508000880F991F880F991F880F991F820F931FF0
:105090008D529E4F9A838983E981FA810180F28142
:1050A000E02D82819381E981FA8192838183E98174
:1050B000FA812181328189819A81039628173907E3
:1050C00059F4E981FA810180F281E02D8281938196
:1050D000E981FA8192838183E981FA810180F281F9
:1050E000E02D868197819093CB018093CA01E09156
:1050F000CA01F091CB01408151818091CA01909108
:10510000CB01E091CA01F091CB012789622FFA010E
:1051100009950F900F90CF91DF910895DF93CF9372
:105120000F92CDB7DEB7198213C08981282F30E0E6
:10513000C901880F991F880F991F880F991F820F27
:10514000931F8D529E4F0E946B2989818F5F8983A7
:105150008981823050F385EE91E00E946B298EEEBA
:1051600091E00E946B298BEF91E00E946B2985EE04
:1051700091E09093F8018093F7018EEE91E0909387
:10518000FA018093F9010F90CF91DF910895DF9399
:10519000CF9300D000D00F92CDB7DEB79D838C8324
:1051A000EC81FD810580F681E02D868197819B83CE
:1051B0008A838A819B810C960E945D2A8A819B81C9
:1051C0009C01245F3F4F8BEF91E0B9010E94A5291C
:1051D000EA81FB819689E091CA01F091CB01868931
:1051E000981718F081E0898301C0198289810F9096
:1051F0000F900F900F900F90CF91DF910895DF9354
:10520000CF9300D000D0CDB7DEB79C838B831A82BA
:1052100019820E94B33580910402909105022B817E
:105220003C81820F931F25E08C3D920718F5209159
:105230000402309105028B819C81280F391F8091D7
:1052400004029091050282179307A0F48091040252
:10525000909105028A5F9D4F9A8389832091040271
:10526000309105028B819C81820F931F90930502E0
:10527000809304020E94BF3589819A810F900F901C
:105280000F900F90CF91DF910895DF93CF9300D0CF
:10529000CDB7DEB79A8389830F900F90CF91DF91BE
:1052A0000895DF93CF93CDB7DEB710920502109229
:1052B0000402CF91DF910895DF93CF93CDB7DEB78E
:1052C00020910402309105028CED95E0821B930B36
:1052D000CF91DF910895DF93CF9300D0CDB7DEB7A4
:1052E0009A83898389819A810396E981FA819283DD
:1052F0008183E981FA818FEF9FEF94838383898192
:105300009A810396E981FA819683858389819A81BE
:105310000396E981FA8190878783E981FA81108277
:105320000F900F90CF91DF910895DF93CF9300D02E
:10533000CDB7DEB79A838983E981FA811186108619
:105340000F900F90CF91DF910895DF93CF9300D00E
:1053500000D000D0CDB7DEB79C838B837E836D8376
:10536000EB81FC81818192819A838983E981FA8131
:1053700082819381ED81FE8193838283EB81FC8125
:1053800081819281ED81FE8195838483E981FA8117
:105390000280F381E02D8D819E81958384838D81B0
:1053A0009E81E981FA81938382838D819E81EB8145
:1053B000FC8192838183ED81FE818B819C81918729
:1053C0008087EB81FC8180818F5FEB81FC81808312
:1053D00026960FB6F894DEBF0FBECDBFCF91DF91FA
:1053E0000895DF93CF93CDB7DEB728970FB6F89423
:1053F000DEBF0FBECDBF9E838D8378876F83EF8125
:10540000F885808191819A83898389819A812FEFA0
:105410008F3F920739F4ED81FE81878190859C83CF
:105420008B8318C08D819E8103969C838B8306C0DD
:10543000EB81FC81828193819C838B83EB81FC8156
:105440000280F381E02D2081318189819A81821748
:10545000930770F7EB81FC8182819381EF81F8855E
:1054600093838283EF81F8850280F381E02D8F8121
:10547000988595838483EF81F8858B819C819583C2
:1054800084838F819885EB81FC8193838283EF8174
:10549000F8858D819E8191878087ED81FE81808155
:1054A0008F5FED81FE81808328960FB6F894DEBF72
:1054B0000FBECDBFCF91DF910895DF93CF9300D082
:1054C00000D0CDB7DEB79C838B83EB81FC81A281BA
:1054D000B381EB81FC818481958115969C938E9399
:1054E0001497EB81FC81A481B581EB81FC818281E1
:1054F000938113969C938E931297EB81FC81808508
:1055000091859A838983E981FA81218132818B8116
:105510009C812817390741F4EB81FC8184819581B6
:10552000E981FA8192838183EB81FC811186108667
:10553000E981FA8180818150E981FA8180830F902D
:105540000F900F900F90CF91DF910895DF93CF933D
:10555000CDB7DEB728970FB6F894DEBF0FBECDBF2C
:105560009C838B837E836D8358874F83EB81FC8183
:1055700081E180838B819C8101979C838B83EB816C
:10558000FC8182E280838B819C8101979C838B8349
:10559000EB81FC8183E380838B819C8101979C83D9
:1055A0008B838D819E819A8389838981EB81FC81A4
:1055B00080838B819C8101979C838B8389819A81D5
:1055C000892F99279A8389838981EB81FC81808344
:1055D0008B819C8101979C838B83EB81FC81108262
:1055E0008B819C8101979C838B83EB81FC8180E87C
:1055F00080838B819C8101979C838B83EB81FC81D1
:1056000010828B819C8101979C838B83EB81FC8131
:1056100082E080838B819C8101979C838B83EB81CB
:10562000FC8183E080838B819C8101979C838B83A9
:10563000EB81FC8184E080838B819C8101979C833A
:105640008B83EB81FC8185E080838B819C8101973A
:105650009C838B83EB81FC8186E080838B819C81A2
:1056600001979C838B83EB81FC8187E080838B8116
:105670009C8101979C838B83EB81FC8188E08083F4
:105680008B819C8101979C838B83EB81FC8189E0DA
:1056900080838B819C8101979C838B83EB81FC8130
:1056A00080E180838B819C8101979C838B83EB813C
:1056B000FC8181E180838B819C8101979C838B831A
:1056C000EB81FC8182E180838B819C8101979C83AB
:1056D0008B83EB81FC8183E180838B819C810197AB
:1056E0009C838B83EB81FC8184E180838B819C8113
:1056F00001979C838B83EB81FC8185E180838B8187
:105700009C8101979C838B83EB81FC8186E1808364
:105710008B819C8101979C838B83EB81FC8187E14A
:1057200080838B819C8101979C838B83EB81FC819F
:1057300088E180838B819C8101979C838B83EB81A3
:10574000FC8189E180838B819C8101979C838B8381
:10575000EB81FC8180E280838B819C8101979C831B
:105760008B83EB81FC8181E280838B819C8101971B
:105770009C838B83EB81FC8182E280838B819C8183
:1057800001979C838B83EB81FC8183E280838B81F7
:105790009C8101979C838B838F8198859A838983D1
:1057A0008981EB81FC8180838B819C8101979C8323
:1057B0008B8389819A81892F99279A83898389810B
:1057C000EB81FC8180838B819C8101979C838B83FF
:1057D000EB81FC8186E280838B819C8101979C8395
:1057E0008B83EB81FC8187E280838B819C81019795
:1057F0009C838B83EB81FC8188E280838B819C81FD
:1058000001979C838B83EB81FC8189E280838B8170
:105810009C8101979C838B83EB81FC8180E3808357
:105820008B819C8101979C838B83EB81FC8181E33D
:1058300080838B819C8101979C838B838B819C814E
:1058400028960FB6F894DEBF0FBECDBFCF91DF9183
:105850000895DF93CF93CDB7DEB70E94192DA091A5
:10586000E207B091E307CD91CDBFDD91DEBFFF919F
:10587000EF91DF91CF91BF91AF919F918F917F91E8
:105880006F915F914F913F912F911F910F91FF90D9
:10589000EF90DF90CF90BF90AF909F908F907F90D0
:1058A0006F905F904F903F902F901F900F900FBE82
:1058B0000F90089581E0CF91DF910895DF93CF930A
:1058C000CDB7DEB7CF91DF9108950F920FB6F89460
:1058D0000F921F9211242F923F924F925F926F92DC
:1058E0007F928F929F92AF92BF92CF92DF92EF9270
:1058F000FF920F931F932F933F934F935F936F9359
:105900007F938F939F93AF93BF93CF93DF93EF9347
:10591000FF93A091E207B091E3070DB60D920EB68A
:105920000D920E945337A091E207B091E307CD9109
:10593000CDBFDD91DEBFFF91EF91DF91CF91BF91A0
:10594000AF919F918F917F916F915F914F913F9117
:105950002F911F910F91FF90EF90DF90CF90BF900C
:10596000AF909F908F907F906F905F904F903F90FF
:105970002F901F900F900FBE0F9008950F920FB6AB
:10598000F8940F921F9211242F923F924F925F92A0
:105990006F927F928F929F92AF92BF92CF92DF923F
:1059A000EF92FF920F931F932F933F934F935F9329
:1059B0006F937F938F939F93AF93BF93CF93DF9317
:1059C000EF93FF93A091E207B091E3070DB60D921C
:1059D0000EB60D920E947E360E945337A091E207C8
:1059E000B091E307CD91CDBFDD91DEBFFF91EF9187
:1059F000DF91CF91BF91AF919F918F917F916F91E7
:105A00005F914F913F912F911F910F91FF90EF90D8
:105A1000DF90CF90BF90AF909F908F907F906F90CE
:105A20005F904F903F902F901F900F900FBE0F9060
:105A30000895DF93CF9300D000D000D0CDB7DEB76C
:105A400080E094E2A4EFB0E08B839C83AD83BE83BF
:105A50008B819C81AD81BE81689415F8B695A79520
:105A6000979587951694D1F78B839C83AD83BE83DE
:105A70008B819C81AD81BE810197A109B1098B8386
:105A80009C83AD83BE838B8189838B819C81AD8117
:105A9000BE81892F9A2FAB2FBB278B839C83AD832D
:105AA000BE838B818A83EBE4F0E08A818083EAE421
:105AB000F0E0898180838BE08983EEE4F0E08981E6
:105AC0008083E9E5F0E08081898389818061898331
:105AD000E9E5F0E08981808326960FB6F894DEBF71
